:10000000EBC105C204C203C202C201C200C2FFC1E9
:10001000FEC1FDC1FCC1FBC1FAC1F9C1F8C1F7C104
:10002000F6C18D01020408102040801B366CD8AB4D
:100030004D9A2F5EBC63C697356AD4B37DFAEFC57F
:10004000913972E4D3BD61C29F254A943366CC8353
:100050001D3A74E8CB8D01020408102040801B3645
:100060006CD8AB4D9A2F5EBC63C697356AD4B37D0E
:10007000FAEFC5913972E4D3BD61C29F254A94332A
:1000800066CC831D3A74E8CB8D0102040810204031
:10009000801B366CD8AB4D9A2F5EBC63C697356A11
:1000A000D4B37DFAEFC5913972E4D3BD61C29F2507
:1000B0004A943366CC831D3A74E8CB8D0102040860
:1000C000102040801B366CD8AB4D9A2F5EBC63C6A7
:1000D00097356AD4B37DFAEFC5913972E4D3BD6127
:1000E000C29F254A943366CC831D3A74E8CB8D01B8
:1000F000020408102040801B366CD8AB4D9A2F5E4E
:10010000BC63C697356AD4B37DFAEFC5913972E402
:10011000D3BD61C29F254A943366CC831D3A74E8EF
:10012000CB52096AD53036A538BF40A39E81F3D79C
:10013000FB7CE339829B2FFF87348E4344C4DEE986
:10014000CB547B9432A6C2233DEE4C950B42FAC3AE
:100150004E082EA16628D924B2765BA2496D8BD1B8
:100160002572F8F66486689816D4A45CCC5D65B6F2
:10017000926C704850FDEDB9DA5E154657A78D9D1B
:100180008490D8AB008CBCD30AF7E45805B8B345CB
:1001900006D02C1E8FCA3F0F02C1AFBD0301138AC8
:1001A0006B3A9111414F67DCEA97F2CFCEF0B4E69B
:1001B0007396AC7422E7AD3585E2F937E81C75DF3C
:1001C0006E47F11A711D29C5896FB7620EAA18BE54
:1001D0001BFC563E4BC6D279209ADBC0FE78CD5A26
:1001E000F41FDDA8338807C731B11210592780ECFE
:1001F0005F60517FA919B54A0D2DE57A9F93C99C7F
:10020000EFA0E03B4DAE2AF5B0C8EBBB3C83539961
:1002100061172B047EBA77D626E169146355210C49
:100220007D637C777BF26B6FC53001672BFED7ABAC
:1002300076CA82C97DFA5947F0ADD4A2AF9CA472A8
:10024000C0B7FD9326363FF7CC34A5E5F171D83120
:100250001504C723C31896059A071280E2EB27B24C
:100260007509832C1A1B6E5AA0523BD6B329E32F73
:100270008453D100ED20FCB15B6ACBBE394A4C58A7
:10028000CFD0EFAAFB434D338545F9027F503C9F09
:10029000A851A3408F929D38F5BCB6DA2110FFF328
:1002A000D2CD0C13EC5F974417C4A77E3D645D1953
:1002B0007360814FDC222A908846EEB814DE5E0B14
:1002C000DBE0323A0A4906245CC2D3AC629195E481
:1002D00079E7C8376D8DD54EA96C56F4EA657AAECC
:1002E00008BA78252E1CA6B4C6E8DD741F4BBD8B5A
:1002F0008A703EB5664803F60E613557B986C11D52
:100300009EE1F8981169D98E949B1E87E9CE5528F5
:10031000DF8CA1890DBFE6426841992D0FB054BB17
:1003200016D07970793079D07870781078A07740CD
:1003300077E0767076007680751075907410749002
:100340007310737072F0715071D0703070906F00D4
:100350006F506EB06D106D606CC06B106B606AA0FA
:1003600069006940688067C06620666065A064E0D7
:100370006320636062A061E0602060605FA05EE077
:100380005D205D605CB05BF05A405A8059D05820C7
:10039000586057B05610565055B05400546053B082
:1003A0005210527051D0503050904F004F704EE06C
:1003B0004D404DC04C204CA04B204BA04A204AA0A1
:1003C000492049B0483048C0475047E04680461071
:1003D00046A0454045E0440011241FBECFE5D1E0D2
:1003E000DEBFCDBF10E0A0E6B0E0EEE1FFE002C06E
:1003F00005900D92A636B107D9F721E0A6E6B0E048
:1004000001C01D92AE32B207E1F73DD386C5F8CDEB
:10041000CF9360911A0170911B0190E024E0880F46
:10042000991F2A95E1F720E030E0F901E80FF91F64
:10043000E659FF4FDB01A20FB31F40E05191CC9171
:100440005C275D934F5F4430C9F72C5F3F4F2031ED
:10045000310559F7CF91089520911A0130911B0170
:1004600094E0D90180E0EC91F0E0EF5DFD4FE49184
:10047000EC938F5F14968430B1F791502F5F3F4F0C
:100480009111EFCF0895E0911A01F0911B01818144
:1004900085879681968793859787818792819287B2
:1004A000978193878583838187830895982F881FF9
:1004B0008827881F6BE1CAD4990F89270895209156
:1004C0001A0130911B0194E0D90180E0EC91F0E039
:1004D000EF5DFE4FE491EC938F5F14968430B1F79B
:1004E00091502F5F3F4F9111EFCF0895E0911A0186
:1004F000F0911B0181858587868186878381878727
:100500009581918792819287838791819583878353
:1005100008956F927F928F929F92AF92BF92CF92E7
:10052000DF92EF92FF920F931F93CF93DF9380E0C0
:100530006FDF7724739490DFA6DF80901A0190908C
:100540001B0154018CE0A80EB11C6401EDE0CE0E3D
:10055000D11C7401FEE0EF0EF11C8401015F1F4FFE
:10056000F5016080F60180818625F801C081F701E0
:100570009081C927C8279ADF86258C27F5018083BB
:10058000F601D081F70180818D2790DF8D27D82F4C
:10059000DC27F601D083F701D081F80180818D2717
:1005A00085DF8D27D82FDC27F701D083F801D08194
:1005B0008D2F86257BDF8D27C827F801C083F4E0C7
:1005C000AF1AB10884E0C81AD108E4E0EE1AF108C5
:1005D00004501109A814B90419F6872D19DF739472
:1005E000FAE07F12A8CF38DF4EDF8AE0DF91CF91AB
:1005F0001F910F91FF90EF90DF90CF90BF90AF9041
:100600009F908F907F906F9003CF2F923F924F9249
:100610005F926F927F928F929F92AF92BF92CF9292
:10062000DF92EF92FF920F931F93CF93DF93CDB79B
:10063000DEB72A970FB6F894DEBF0FBECDBF8AE0B3
:10064000E7DE89E0282E52DF3ADF822DE1DE40909E
:100650001A0150901B0152018CE0A80EB11C6201DE
:10066000AFE0CA0ED11CF501F081F983360182E0BA
:10067000681A7108D3011C91F601E2904F01D6016E
:100680000C91898113DF582F588710DFF82E0EDF69
:10069000782F812F7F830ADF898708DF482F4E83D9
:1006A00005DF982F8E2D9D8301DF682F6C83FEDE82
:1006B0008A87FCDE382E802FF9DE382F3B83F6DE6A
:1006C000282F2A83F3DE5885EF2DE5277F81E72742
:1006D000B985EB279D81E927FA85EF27E325E827F0
:1006E000E027E127EE25D501EC93E985E7274E8148
:1006F000E427E9276C81E627E3252A81E227E8271A
:10070000B981EB27E027EE25D301EC93B9811B27B4
:10071000F726F9266F256F2763253B816327682716
:1007200006270127F40100835727452794273926F8
:10073000332623258227E8261E25D6011C93B4E004
:10074000AB1AB108E4E0CE1AD108A414B50409F03C
:100750008ACF2A94211077CFC9DEB1DE80E02A96B5
:100760000FB6F894DEBF0FBECDBFDF91CF911F91C2
:100770000F91FF90EF90DF90CF90BF90AF909F9040
:100780008F907F906F905F904F903F902F9040CED2
:10079000A0916600B0916700FC019C01205F3F4F73
:1007A0008D91908189278193E217F307C9F7089506
:1007B0009B01205F3F4FFB014191BF01FC01419331
:1007C000CF0162177307B9F708950F931F93CF9363
:1007D000DF9300D000D0CDB7DEB760916800709194
:1007E00069008AE690E0E4DF2DE030E08FEF820FD1
:1007F000982F9370492F50E0F901E370FF27E659D5
:10080000FF4FE081F0E0EF5DFD4FE491A1E0B0E04B
:10081000AC0FBD1FA40FB51FEC9391110AC08695B4
:100820008695E82FF0E0EE5DFF4FE4918981E8279F
:10083000E983C90186599F4F8C010150110961E07C
:1008400070E06C0F7D1F460F571FDC011597FA01F2
:1008500040818C918427F80180832F5F3F4F2D3298
:10086000310509F0C3CF0F900F900F900F90DF91DB
:10087000CF911F910F9108958F929F92AF92BF9247
:10088000CF92DF92EF92FF920F931F93CF93DF935C
:10089000EC016B017A0149015801142F1F7088DFA8
:1008A000D0931B01C0931A018114910429F09092F6
:1008B00069008092680089DFA114B10421F0B09230
:1008C0006700A0926600A12EB12CEA14FB04B1F0DF
:1008D000C6015EDFB601CE016BDFD0931B01C09372
:1008E0001A0117DED0936700C093660080E1C80E3E
:1008F000D11C609680E1E81AF108E7CF1123F1F0EE
:10090000B601CE0155DF40E150E04E195F0960E0CD
:1009100070E0CE018E0D9F1DA2D2D0931B01C0931B
:100920001A01DF91CF911F910F91FF90EF90DF900F
:10093000CF90BF90AF909F908F90EBCDDF91CF91F4
:100940001F910F91FF90EF90DF90CF90BF90AF90ED
:100950009F908F9008958F929F92AF92BF92CF9267
:10096000DF92EF92FF920F931F93CF93DF93EC01EF
:100970006B017A0149015801142F1F7019DFD093C0
:100980001B01C0931A018114910429F0909269000F
:10099000809268001ADFA114B10421F0B0926700C0
:1009A000A0926600A12EB12CEA14FB04B1F0B601AE
:1009B000CE01FEDED0931B01C0931A0126DECE01CC
:1009C000E7DED0926700C092660080E1C80ED11CBD
:1009D000609680E1E81AF108E7CF1123F1F0B60143
:1009E000CE01E6DE40E150E04E195F0960E070E0C4
:1009F000CE018E0D9F1D33D2D0931B01C0931A01DF
:100A0000DF91CF911F910F91FF90EF90DF90CF90EA
:100A1000BF90AF909F908F90F8CDDF91CF911F91B5
:100A20000F91FF90EF90DF90CF90BF90AF909F908D
:100A30008F90089585B7877E806185BF009A85B7BE
:100A4000806285BF85B7846885BF85B78B7F85BF8A
:100A5000889585B78F7D85BF80B1807F80B90895E7
:100A6000E7EDF3E0E491009719F48EEF91E008953B
:100A7000E1E2F3E0E491892B19F480E79EEF089519
:100A800084EF91E00895CF93DF93CDB7DEB7AB97B6
:100A90000FB6F894DEBF0FBECDBF45E050E060E07A
:100AA00070E0CB012BD245E050E065E070E0CB0177
:100AB00025D220E030E0AE01495D5F4F60E182E089
:100AC0002BD180E487B987E886B98FEF87BB40E1F7
:100AD00050E06AE070E0CE01419610D2F89484B7FD
:100AE000877F84BF81B5886181BD81E281BD81B589
:100AF000806481BD1FBC1EBC88E09DE39BBD8ABD98
:100B00008EB588608EBD8EB581608EBD8EB58460D9
:100B10008EBD619A78948CE0D82E7E0185E0E80E37
:100B2000F11CCC24C39480916000882309F46EC02A
:100B30001092600019821A821B821C82F7018D2D8F
:100B400011928A95E9F719A21AA21BA21CA21EA251
:100B50001DA2C8BA87B1887F816087B920E280E092
:100B600090E0369A3699FECF44B155B1840F951F67
:100B70002150B9F718BA74DF4AE050E0BE016F5D4A
:100B80007F4F7FD10CE111E09E012F5E3F4F46E089
:100B900050E0BE016F5D7F4FCB016EDE61E070E023
:100BA000CE01019663D1BE016F5D7F4FCE010196EC
:100BB0005DD1CE01019606D1A3D010922C018DD02B
:100BC000811104C080912C018230C8F386D0882323
:100BD000E1F0CE01019676D00CE111E09E012F5E8E
:100BE0003F4F40E150E0BE016F5F7F4FCB01B3DE6E
:100BF00061E070E0CE01019639D161E670E0CE018E
:100C0000019634D1CE010196DDD0F3D013DF8BCF26
:100C1000AF92BF92DF92EF92FF920F931F93CF9309
:100C2000DF9300D01F92CDB7DEB7F82EE42E80E020
:100C30006A837B839983EED0DF2C6A81062F7B81C8
:100C4000172FAF2C9981B92E8A2D8D198E1540F44E
:100C5000F50181915F01EED0F80181938F01F4CF0E
:100C600081E00F900F900F90DF91CF911F910F9126
:100C7000FF90EF90DF90BF90AF90CCC0CF93C82F84
:100C800080E0C8D08C2FD6D081E0C4D0CF91089519
:100C9000962F8F718062682F70E041E0892F90E07D
:100CA000B7CFCF93DF931F92CDB7DEB741E067E1B7
:100CB00070E0CE010196ACDF898181700F90DF91E9
:100CC000CF91089540912D014F5F61E670E0A0DF64
:100CD00060E487E0DDCF8FEFD1CFFDDF86FD06C07A
:100CE000E0DF91E0882319F090E001C091E0892FC6
:100CF0000895F1DF982F907381E009F080E0089566
:100D000082EEBCDF60E787E0C3DF80E07DD06FE08C
:100D100080E0BEDF81E078C0EF92FF920F931F93D7
:100D2000CF93DF93182F062F7A01E90167D078D08F
:100D300080E06AD081E06ED045E06BE270E0C701F0
:100D400067DF45E06AE270E0CE0162DF45E060E324
:100D500070E0CE015DDF00932D01612F85E098DF0B
:100D600060E081E195DF60912D0182E191DF60E03B
:100D700083E18EDF60E084E18BDF60E085E188DF86
:100D800060E086E185DF66E086E082DF6CE080E09F
:100D90007FDF63E081E07CDF63E082E079DF6FEF9B
:100DA00084E076DF60E08CE173DFDF91CF911F910B
:100DB0000F91FF90EF90A4CF60E787E069DF6EE0CE
:100DC00080E066CFCF93DF93EC0180E01DD0F4DFAD
:100DD00081EE54DF40912D014F5F60EA70E0CE015B
:100DE00017DF81E011D085DF8111FDCFDF91CF9139
:100DF000089580E009D06CE080E04ACFD39AB99A98
:100E0000D49AD69AD5980895882311F0DB9A08953C
:100E1000DB980895882311F0C19A0895C198089528
:100E20008DB18F718DB98DB18A618DB9D49AD59AF2
:100E3000D69808958FB980E48EB98FB7F8947699D3
:100E400002C0689AFCCF8FBF8FB10895002480FD47
:100E5000060E660F11F08695D1F7802D0895DC01FE
:100E600001C06D9341505040E0F70895FB01DC0153
:100E70000D900020E9F7119701900D920020E1F705
:100E800008954532510518F4423008F004C0FB01C2
:100E90001082CB010895BB274A3031F4992322F404
:100EA000BDE2909581959F4F01C0BB27FB0155275F
:100EB000AA27880F991FAA1FA41710F0A41B8395B7
:100EC0005051B9F7A05DAA3308F0A95DA19300972E
:100ED00079F7B111B1931192CB0100C0DC01FC0193
:100EE000672F71917723E1F7329704C07C916D935E
:100EF00070836291AE17BF07C8F30895DC01862F97
:100F0000E82FE199FECF1FBA05C0EEBBE09AE3954A
:0E0F10000DB20D924150C8F70895F894FFCF2E
:060F1E000141434B0000FD
:00000001FF
