S01B0000576972656C65737354656D702053656E736F722E737265638B
S11300000C948F000C94AC000C94AC000C94AC00D9
S11300100C94AC000C94AC000C94AE000C94AC00AA
S11300200C94AC000C94AC000C94AC000C94AC009C
S11300300C94AC000C94AC000C94AC000C94AC008C
S11300400C94AC000C94AC000C94AC000C94AC007C
S11300500C94AC000C94AC000C94AC000C94AC006C
S11300600C94AC000C94AC00D07970793079D078D1
S113007070781078A0774077E07670760076807597
S1130080107590741074907310737072F0715071D5
S1130090D0703070906F006F506EB06D106D606CEA
S11300A0C06B106B606AA069006940688067C066B5
S11300B020666065A064E06320636062A061E06024
S11300C02060605FA05EE05D205D605CB05BF05A24
S11300D0405A8059D05820586057B0561056505541
S11300E0B05400546053B05210527051D05030503C
S11300F0904F004F704EE04D404DC04C204CA04BF3
S1130100204BA04A204AA0492049B0483048C04763
S11301105047E04680461046A0454045E04411243F
S11301201FBECFEFD8E0DEBFCDBF11E0A0E0B1E04D
S1130130E8E4FAE002C005900D92A231B107D9F7C4
S113014021E0A2E1B1E001C01D92A431B207E1F7C0
S11301500E9478010C9422050C9400001F920F92C7
S11301600FB60F9211248F9381E0809300018F9139
S11301700F900FBE0F901F90189583B7817F8460F6
S113018083BFE4E6F0E080818160808383B781608F
S113019083BF85B7806685BF85B78F7D85BF88950A
S11301A083B78E7F83BF8081807180830895CF93CE
S11301B0DF93EEE1F1E0E491F0E0E817F90738F0BD
S11301C08E179F0708F48AC08EEF91E08EC0E8E690
S11301D0F0E0E491F0E08E179F07C0F0E817F9070C
S11301E008F47FC080E79EEF80C0240F351F35954B
S11301F02795622FF901FF27EE0FFF1FE859FF4FE4
S1130200E491F0E0E817F90730F002C0ABE560E0F4
S1130210462F50E001C0A22F2A2F30E0BA01F90185
S1130220E41BF50B32970CF7FA01EE0FFF1FE859A8
S1130230FF4FE4914E2F50E08417950778F0CB01DF
S1130240880F991F660F771F660F771F660F771F3A
S1130250680F791FCB018059914047C0D901AA0F7B
S1130260BB1FFD01E859FF4F649170E0FA01E61BE2
S1130270F70B220F331F220F331F220F331F2A0FB6
S11302803B1FE901C059D140309771F1861B970B90
S1130290A0E0B0E0880F991FAA1FBB1FAC01BD01ED
S11302A0440F551F661F771F440F551F661F771F86
S11302B0840F951FA61FB71F9F0136952795BC0174
S11302C0CD01620F731F811D911D9F0140E050E01D
S11302D00E948604CE01821B930B07C080E79EEF29
S11302E004C084EF91E001C0CE01DF91CF91089565
S11302F0CF93DF93CDB7DEB7C457D1090FB6F894C7
S1130300DEBF0FBECDBFF89484B7877F84BFE0E61D
S1130310F0E080818861808381E2808380818064D1
S11303208083789445E050E060E070E0CE0106966A
S11303300E94120545E050E065E070E0CE010196B0
S11303400E9412059E012A5F3F4FAE014F5F5F4F2F
S113035060E282E00E9404030E94F20280E480933F
S11303607C0087E880937A000F2EF1E34F2E542C03
S1130370642C712CF02D0F2EFCE19F2EF02D5E01CC
S11303808FE0A80EB11C19E10F2EF8E4CF2ED12C6A
S1130390F02DCC0EDD1EE4E0CE0ED11C7E01FFE27A
S11303A0EF0EF11C00E180910001882309F454C090
S11303B010920001809112018F3F19F410921201E2
S11303C04BC0109212014B865C866D867E86F501C9
S11303D0892D11928A95E9F72C961CAE1DAE1EAE9E
S11303E01FAE2C97F601812F11928A95E9F71BA66F
S11303F01CA61DA61EA6F701812F11928A95E9F766
S1130400E1E0F1E0DE01AB59BF4F802F01900D9286
S11304108A95E1F780E090E00E94D7004AE050E03E
S1130420BE01685B7F4F0E94D204AE014B595F4FFF
S1130430BE01685B7F4FCE018B960E94B903BE015B
S1130440655D7F4FCE010B960E94C704CE010B96CB
S11304500E9474030E9490030E94BD00A4CFEF92F7
S1130460FF921F93CF93DF93E82E80E00E94AA03AC
S1130470C7E0D0E010E0F12C97010C2E02C03595B6
S113048027950A94E2F720FF04C081E00E94B0039C
S113049003C080E00E94B00381E00E94AA03110F10
S11304A00E94B6038111116080E00E94AA03219783
S11304B018F7812FDF91CF911F91FF90EF9008954E
S11304C0CF93DF93C82FD62F80E00E94A4038C2FF4
S11304D08F7180620E942F028D2F0E942F0281E073
S11304E00E94A403DF91CF910895EF92FF920F939E
S11304F01F93CF93DF93C82F7B01142F80E00E94BA
S1130500A4038C2F8F7180620E942F02112371F03B
S1130510E7011150012F10E00F5F1F4F0E0D1F1D3B
S113052089910E942F02C017D107D1F781E00E9460
S1130530A403DF91CF911F910F91FF90EF90089545
S1130540BF92CF92DF92EF92FF920F931F93CF93BC
S1130550DF936C01C62FB42EE52EF22E80E00E94AC
S1130560A4038C2F0E942F02FF20A1F0E6010B2D83
S11305701E2DFA94EF2CF12C8FEFE81AF80AEC0CEC
S1130580FD1C89910E942F02F80181938F01CE15E1
S1130590DF05B9F781E00E94A403DF91CF911F9199
S11305A00F91FF90EF90DF90CF90BF900895CF937D
S11305B0C82F80E00E94A4038C2F0E942F02C82F12
S11305C081E00E94A4038C2FCF9108958FEF0E94A5
S11305D0D70208950E94E602982F907381E009F0F3
S11305E080E0089582EE0E94D70260E787E00E94CF
S11305F0600280E00E949E036FE080E00E9460023F
S113060081E00E949E030895EF92FF920F931F933F
S1130610CF93DF93F82EE62E8A01E9010E94980316
S113062080E00E949E0381E00E94A403E0921301F3
S11306306F2D85E00E94600260E081E10E9460020B
S11306406091130182E10E94600260E083E10E94F4
S1130650600260E084E10E94600260E085E10E9443
S1130660600260E086E10E94600266E086E00E942B
S113067060026CE080E00E94600263E081E00E941E
S1130680600263E082E00E9460026FEF84E00E94F7
S1130690600260E08CE10E94600245E0BE018AE0F5
S11306A00E94750245E0BE0180E10E94750280E06F
S11306B00E949E0345E0B8018BE00E94750281E030
S11306C00E949E030E94F202DF91CF911F910F912D
S11306D0FF90EF90089560E787E00E9460026EE06B
S11306E080E00E9460020895CF93DF93EC0180E0E4
S11306F00E949E030E946B0381EE0E94D702209108
S11307001301AE0160EACE010E94A00281E00E94C2
S11307109E030E94EA028111FCCFDF91CF910895DC
S113072080E00E949E036CE080E00E9460020895D5
S1130730539A219A549A569A55980895882311F0F9
S11307405B9A08955B980895882311F0299A089577
S113075029980895882311F05C9A08955C98089567
S1130760882311F05E9A08955E98089589B1807285
S113077008954F925F926F927F928F929F92AF9261
S1130780BF92CF92DF92EF92FF920F931F93CF937A
S1130790DF93EC01FA01DB018D909D90AD90BC904C
S11307A013971496CD90DD90ED90FC90179700E090
S11307B010E09801D801A370BB27AA0FBB1FAA0F92
S11307C0BB1FAE0FBF1F4D905D906D907C90400E8F
S11307D0511E621E731EB701A601689414F8769523
S11307E06795579547951694D1F7D701C601880F99
S11307F0991FAA1FBB1F880F991FAA1FBB1F880F11
S1130800991FAA1FBB1F880F991FAA1FBB1F8427EC
S11308109527A627B7278C0D9D1DAE1DBF1D482605
S113082059266A267B26840C951CA61CB71C0754E3
S11308301648284C3146D501C401689414F8B6957D
S1130840A795979587951694D1F7B501A401440F00
S1130850551F661F771F440F551F661F771F440FD0
S1130860551F661F771F440F551F661F771F4827A4
S113087059276A277B27480D591D6A1D7B1DD901FD
S1130880C801072E7BE0B695A795979587957A952D
S1130890D1F7702DDC01A370BB27AA0FBB1FAA0FD1
S11308A0BB1FAE0FBF1F8D919D910D90BC91A02DCC
S11308B0800F911FA21FB31F482759276A277B2740
S11308C0C40ED51EE61EF71E0032B7E31B07BFEEAB
S11308D02B07B6EC3B0709F06DCF88829982AA8278
S11308E0BB82CC82DD82EE82FF82DF91CF911F91A9
S11308F00F91FF90EF90DF90CF90BF90AF909F90BB
S11309008F907F906F905F904F900895052E97FB86
S11309101EF400940E949D0457FD07D00E94A50474
S113092007FC03D04EF40C949D04509540953095EB
S113093021953F4F4F4F5F4F089590958095709547
S113094061957F4F8F4F9F4F0895A1E21A2EAA1BE6
S1130950BB1BFD010DC0AA1FBB1FEE1FFF1FA2176B
S1130960B307E407F50720F0A21BB30BE40BF50B68
S1130970661F771F881F991F1A9469F760957095F1
S1130980809590959B01AC01BD01CF010895FB01B9
S1130990DC010D900020E9F7119701900D920020E1
S11309A0E1F708954532510520F4423010F00C94DB
S11309B0DD04FB011082CB010895BB274A3031F4DA
S11309C0992322F4BDE2909581959F4F0C94E904FC
S11309D0BB27FB015527AA27880F991FAA1FA41715
S11309E010F0A41B83955051B9F7A05DAA3308F009
S11309F0A95DA193009779F7B111B1931192CB013D
S1130A000C940205DC01FC01672F71917723E1F757
S1130A10329704C07C916D9370836291AE17BF07C7
S1130A20C8F30895DC01CB01FC01F999FECF06C09F
S1130A30F2BDE1BDF89A319600B40D924150504098
S10B0A40B8F70895F894FFCF04
S1130A4801000102030405060708090A0B0C0D0E30
S1050A580F0089
S9030000FC
