S01B0000576972656C65737354656D702053656E736F722E737265638B
S1130000EBC105C204C203C202C201C200C2FFC1E5
S1130010FEC1FDC1FCC1FBC1FAC1F9C1F8C1F7C100
S1130020F6C18D01020408102040801B366CD8AB49
S11300304D9A2F5EBC63C697356AD4B37DFAEFC57B
S1130040913972E4D3BD61C29F254A943366CC834F
S11300501D3A74E8CB8D01020408102040801B3641
S11300606CD8AB4D9A2F5EBC63C697356AD4B37D0A
S1130070FAEFC5913972E4D3BD61C29F254A943326
S113008066CC831D3A74E8CB8D010204081020402D
S1130090801B366CD8AB4D9A2F5EBC63C697356A0D
S11300A0D4B37DFAEFC5913972E4D3BD61C29F2503
S11300B04A943366CC831D3A74E8CB8D010204085C
S11300C0102040801B366CD8AB4D9A2F5EBC63C6A3
S11300D097356AD4B37DFAEFC5913972E4D3BD6123
S11300E0C29F254A943366CC831D3A74E8CB8D01B4
S11300F0020408102040801B366CD8AB4D9A2F5E4A
S1130100BC63C697356AD4B37DFAEFC5913972E4FE
S1130110D3BD61C29F254A943366CC831D3A74E8EB
S1130120CB52096AD53036A538BF40A39E81F3D798
S1130130FB7CE339829B2FFF87348E4344C4DEE982
S1130140CB547B9432A6C2233DEE4C950B42FAC3AA
S11301504E082EA16628D924B2765BA2496D8BD1B4
S11301602572F8F66486689816D4A45CCC5D65B6EE
S1130170926C704850FDEDB9DA5E154657A78D9D17
S11301808490D8AB008CBCD30AF7E45805B8B345C7
S113019006D02C1E8FCA3F0F02C1AFBD0301138AC4
S11301A06B3A9111414F67DCEA97F2CFCEF0B4E697
S11301B07396AC7422E7AD3585E2F937E81C75DF38
S11301C06E47F11A711D29C5896FB7620EAA18BE50
S11301D01BFC563E4BC6D279209ADBC0FE78CD5A22
S11301E0F41FDDA8338807C731B11210592780ECFA
S11301F05F60517FA919B54A0D2DE57A9F93C99C7B
S1130200EFA0E03B4DAE2AF5B0C8EBBB3C8353995D
S113021061172B047EBA77D626E169146355210C45
S11302207D637C777BF26B6FC53001672BFED7ABA8
S113023076CA82C97DFA5947F0ADD4A2AF9CA472A4
S1130240C0B7FD9326363FF7CC34A5E5F171D8311C
S11302501504C723C31896059A071280E2EB27B248
S11302607509832C1A1B6E5AA0523BD6B329E32F6F
S11302708453D100ED20FCB15B6ACBBE394A4C58A3
S1130280CFD0EFAAFB434D338545F9027F503C9F05
S1130290A851A3408F929D38F5BCB6DA2110FFF324
S11302A0D2CD0C13EC5F974417C4A77E3D645D194F
S11302B07360814FDC222A908846EEB814DE5E0B10
S11302C0DBE0323A0A4906245CC2D3AC629195E47D
S11302D079E7C8376D8DD54EA96C56F4EA657AAEC8
S11302E008BA78252E1CA6B4C6E8DD741F4BBD8B56
S11302F08A703EB5664803F60E613557B986C11D4E
S11303009EE1F8981169D98E949B1E87E9CE5528F1
S1130310DF8CA1890DBFE6426841992D0FB054BB13
S113032016D07970793079D07870781078A07740C9
S113033077E07670760076807510759074107490FE
S11303407310737072F0715071D0703070906F00D0
S11303506F506EB06D106D606CC06B106B606AA0F6
S113036069006940688067C06620666065A064E0D3
S11303706320636062A061E0602060605FA05EE073
S11303805D205D605CB05BF05A405A8059D05820C3
S1130390586057B05610565055B05400546053B07E
S11303A05210527051D0503050904F004F704EE068
S11303B04D404DC04C204CA04B204BA04A204AA09D
S11303C0492049B0483048C0475047E0468046106D
S11303D046A0454045E0440011241FBECFE5D1E0CE
S11303E0DEBFCDBF10E0A0E6B0E0E2E9F0E102C07C
S11303F005900D92A636B107D9F721E0A6E6B0E044
S113040001C01D92A032B207E1F799D340C6F8CDDE
S1130410CF9360911A0170911B0190E024E0880F42
S1130420991F2A95E1F720E030E0F901E80FF91F60
S1130430E659FF4FDB01A20FB31F40E05191CC916D
S11304405C275D934F5F4430C9F72C5F3F4F2031E9
S1130450310559F7CF91089520911A0130911B016C
S113046094E0D90180E0EC91F0E0EF5DFD4FE49180
S1130470EC938F5F14968430B1F791502F5F3F4F08
S11304809111EFCF0895E0911A01F0911B0125819C
S113049021833285328387858383918595839685ED
S11304A09683878345854187838725870895982F79
S11304B0881F8827881F6BE183D5990F89270895A2
S11304C020911A0130911B0194E0D90180E0EC9154
S11304D0F0E0EF5DFE4FE491EC938F5F149684306F
S11304E0B1F791502F5F3F4F9111EFCF0895E091F5
S11304F01A01F0911B0185858183328532839781AE
S1130500938385832685268343854783818737851F
S11305103387978708956F927F928F929F92AF92BD
S1130520BF92CF92DF92EF92FF920F931F93CF93DC
S1130530DF9380E06DDF772473948EDFA4DF009176
S11305401A0110911B0158018FEFA81AB80A68010B
S1130550E2E0CE0ED11C7801F3E0EF0EF11C48016D
S113056080E1880E911CF8016080F5018081862568
S1130570F701C081F6019081C927C82798DF862535
S11305808C27F8018083F501D081F60180818D27C5
S11305908EDF8D27D82FDC27F501D083F601D0819B
S11305A0F70180818D2783DF8D27D82FDC27F60183
S11305B0D083F701D0818D2F862579DF8D27C82739
S11305C0F701C0830C5F1F4FF4E0AF0EB11C84E051
S11305D0C80ED11CE4E0EE0EF11C0815190519F63D
S11305E0872D16DF7394FAE07F12A7CF35DF4BDF38
S11305F08AE0DF91CF911F910F91FF90EF90DF90F0
S1130600CF90BF90AF909F908F907F906F9000CFCE
S11306102F923F924F925F926F927F928F929F920E
S1130620AF92BF92CF92DF92EF92FF920F931F93FC
S1130630CF93DF93CDB7DEB72A970FB6F894DEBF1A
S11306400FBECDBF8AE0E4DE89E0282E50DF38DF1C
S1130650822DDEDEE0901A01F0901B01570163E069
S1130660A60EB11CC70140969A838983F7011081B5
S11306703501F2E06F1A7108F3016081F501C2904F
S11306804F01F5010081812F688711DF382F3F83E7
S11306900EDFD82E0CDF582F6885862F5E8307DF88
S11306A0898705DF282F2D8302DF482E8C2DFFDE5E
S11306B0482F4C83FCDE8A87FADE582E802FF7DE23
S11306C0982F9B83F4DE382EF2DE3F817D2D732735
S11306D05E817527F9857F277425EA857E27752530
S11306E078277027688576277C25F70170837985BC
S11306F075272D81722774254C81742775257325E0
S11307007827712770277C25F30170831627D52657
S1130710D4244D256A85462745259B8149274827AA
S113072004270127F4010083352723274226542474
S1130730592635248325C8261C25F5011083F4E0A9
S1130740EF0EF11C64E0A60EB11C89819A81E816B3
S1130750F90609F08BCF2A94211078CFC8DEB0DED9
S113076080E02A960FB6F894DEBF0FBECDBFDF91AE
S1130770CF911F910F91FF90EF90DF90CF90BF909A
S1130780AF909F908F907F906F905F904F903F902D
S11307902F903ECE9B01205F3F4FFB014191BF0153
S11307A0FC014193CF0162177307B9F70895A09133
S11307B06600B0916700FC019C01205F3F4F8D9162
S11307C0908189278193E217F307C9F708950F935E
S11307D01F93CF93DF9300D000D0CDB7DEB7E09165
S11307E06800F091690080E1AAE6B0E001900D9202
S11307F08A95E1F72DE030E08FEF820F982F937008
S1130800492F50E0F901E370FF27E659FF4FE081DB
S1130810F0E0EF5DFD4FE491A1E0B0E0AC0FBD1F4F
S1130820A40FB51FEC9391110AC086958695E82F05
S1130830F0E0EE5DFF4FE4918981E827E983C90187
S113084086599F4F8C010150110961E070E06C0FD3
S11308507D1F460F571FDC011597FA0140818C91CB
S11308608427F80180832F5F3F4F2D32310509F033
S1130870C3CF0F900F900F900F90DF91CF911F91E6
S11308800F9108958F929F92AF92BF92CF92DF9271
S1130890EF92FF920F931F93CF93DF9300D000D07A
S11308A000D0CDB7DEB76C015B014801122F1F7079
S11308B02B833C834D835E836DDFD0921B01C092FA
S11308C01A012B813C814D815E818114910449F090
S11308D090926900809268007ADF5E814D813C814C
S11308E02B81E114F10421F0F0926700E09266009C
S11308F0E12CF12CB5016E0D7F1D46018E0C9F1C61
S1130900C701A0E0B0E082179307A407B507E8F495
S1130910CB012B833C834D835E8369837A8347DFDA
S113092069817A81C40136DF90921B0180921A0199
S1130930F2DD909267008092660080E1E80EF11C7F
S11309405E814D813C812B81D5CF112321F1C401DE
S113095021DF812F90E040E150E0481B590B60E01B
S113096070E0880D991D35D390921B0180921A0175
S113097026960FB6F894DEBF0FBECDBFDF91CF91A0
S11309801F910F91FF90EF90DF90CF90BF90AF90A9
S11309909F908F90C0CD26960FB6F894DEBF0FBE01
S11309A0CDBFDF91CF911F910F91FF90EF90DF901A
S11309B0CF90BF90AF909F908F9008956F927F9249
S11309C09F92AF92BF92CF92DF92EF92FF920F93DA
S11309D01F93CF93DF9300D000D0CDB7DEB76C0167
S11309E05B01822F8F70982EC60129833A834B8333
S11309F05C83D0DED0921B01C0921A0129813A8116
S1130A004B815C810115110549F010936900009335
S1130A106800DDDE5C814B813A812981E114F104B7
S1130A2021F0F0926700E092660000E010E07501AA
S1130A30E00EF11E3601600E711EC801A0E0B0E0A8
S1130A4082179307A407B507C8F4B701C301298324
S1130A503A834B835C839EDE70921B0160921A0181
S1130A60D7DDC301A4DEF0926700E0926600005F68
S1130A701F4F5C814B813A812981D9CF992021F183
S1130A80B701C30187DE892D90E040E150E0481BA7
S1130A90590B60E070E0860D971D9BD270921B018C
S1130AA060921A010F900F900F900F90DF91CF91E9
S1130AB01F910F91FF90EF90DF90CF90BF90AF9078
S1130AC09F907F906F90A4CD0F900F900F900F90F8
S1130AD0DF91CF911F910F91FF90EF90DF90CF9016
S1130AE0BF90AF909F907F906F90089585B7877E59
S1130AF0806185BF009A85B7806285BF85B78468A9
S1130B0085BF85B78B7F85BF889585B78F7D85BF6A
S1130B1080B1807F80B90895E7EDF3E0E491009718
S1130B2019F48EEF91E00895E1E2F3E0E491892B6A
S1130B3019F480E79EEF089584EF91E00895CF9330
S1130B40DF93CDB7DEB7AB970FB6F894DEBF0FBE19
S1130B50CDBF2BD160E182E09DD180E487B987E8E5
S1130B6086B945E050E060E070E0CE01879680D21F
S1130B70CE0187962CD145E050E065E070E0CE01CF
S1130B80879676D2CE01879616D18FEF87BB40E148
S1130B9050E06AE070E0CE0141966AD2F89484B7DE
S1130BA0877F84BF81B5886181BD81E281BD81B5C4
S1130BB0806481BD1FBC1EBC88E09DE39BBD8ABDD3
S1130BC08EB588608EBD8EB581608EBD8EB5846015
S1130BD08EBD619A78942CE0B22E6E0185E0C80E29
S1130BE0D11CAA24A39480916000882309F476C0C0
S1130BF01092600019821A821B821C82F6018B2DCE
S1130C0011928A95E9F719A21AA21BA21CA21EA28C
S1130C101DA2A8BA87B1887F816087B920E280E0ED
S1130C2090E0369A3699FECF44B155B1840F951FA2
S1130C302150B9F718BA70DF4AE050E0BE016F5D89
S1130C407F4FD9D19CE1E92E91E0F92E8E010F5E00
S1130C501F4F26E030E040E050E0BE016F5D7F4F63
S1130C60CB0110DE61E070E0CE010196B9D1BE0186
S1130C706F5D7F4FCE010196B3D1CE0101963BD17A
S1130C80F9D010921E01E3D0811104C080911E019D
S1130C908230C8F3DCD0882301F1CE010196B9D0AB
S1130CA08CE1E82E81E0F82E8E010F5E1F4F20E1CB
S1130CB030E040E050E0BE016F5F7F4FCB017EDE4D
S1130CC061E070E0CE0101968BD161E670E0CE0167
S1130CD0019686D1CE0101960ED145D107DF83CF8F
S1130CE01F93CF93DF931F92CDB7DEB7182F80E009
S1130CF069834AD1812F8F71806256D16981862F91
S1130D0053D181E00F90DF91CF911F913DC1CF92DC
S1130D10DF92FF920F931F93CF93DF931F92CDB770
S1130D20DEB7F82E8B016C018C2D8F19841750F4CB
S1130D30F60181916F01498337D1F80181938F01C5
S1130D404981F2CF0F90DF91CF911F910F91FF90C6
S1130D50DF90CF900895EF92FF920F931F93CF935C
S1130D60DF9300D0CDB7DEB7182F80E069837A8394
S1130D700BD1812F8F71806217D16981E62E7A8120
S1130D80F72E87010B5F1F4FF70181917F010CD173
S1130D90E016F106C9F781E00F900F90DF91CF9133
S1130DA01F910F91FF90EF90EFC0E2D0F3D080E05D
S1130DB0E5D081E0E9C0CF93DF93EC0180E0DED0A1
S1130DC0BE018BE0C8DF81E0DF91CF91D7C0CF9324
S1130DD0DF93EC01BC018AE0BEDFBE0180E1DF915C
S1130DE0CF91B9CFCF93DF931F92CDB7DEB780E019
S1130DF0CBD087E1D9D041E0BE016F5F7F4FCB01FB
S1130E0086DF81E0C1D0898181700F90DF91CF911D
S1130E100895CF93DF93EC0180E0B6D081E6C4D08F
S1130E2040911F01BE01CE0172DF81E0ADD060E4CC
S1130E3087E0DF91CF9154CFCF9380E0A5D08FEF9F
S1130E40B3D0C82F81E0A0D08C2FCF910895F4DFC8
S1130E5086FD06C0C7DF91E0882319F090E001C049
S1130E6091E0892F0895E8DF982F907381E009F0CD
S1130E7080E0089580E088D082EE96D081E084D02E
S1130E8060E787E02DDF80E079D06FE080E028DF45
S1130E9081E074C060931F01682F85E021DF60E06A
S1130EA081E11EDF60911F0182E11ADF60E083E1CE
S1130EB017DF60E084E114DF60E085E111DF60E0CA
S1130EC086E10EDF66E086E00BDF6CE080E008DFA1
S1130ED063E081E005DF63E082E002DF6FEF84E03E
S1130EE0FFDE60E08CE1FCDEC5CF60E787E0F8DE82
S1130EF06EE080E0F5CECF92DF92FF920F931F93C6
S1130F00CF93DF931F92CDB7DEB7182F80E099837C
S1130F1035D0EBDF80E038D081EE46D081E034D0AC
S1130F2080E032D080EA40D000911F01F12EC12E22
S1130F309981D92E8C2D8F19801728F4F60181916F
S1130F406F0132D0F7CF81E01FD081E017D08BDF63
S1130F508111FDCF0F90DF91CF911F910F91FF90E1
S1130F60DF90CF90089580E009D06CE080E0B8CEA7
S1130F70D39AB99AD49AD69AD5980895882311F019
S1130F80DB9A0895DB980895882311F0C19A089597
S1130F90C19808958DB18F718DB98DB18A618DB964
S1130FA0D49AD59AD69808958FB980E48EB98FB71C
S1130FB0F894769902C0689AFCCF8FBF8FB10895D8
S1130FC0002480FD060E660F11F08695D1F7802D62
S1130FD00895DC0101C06D9341505040E0F708953D
S1130FE0FB01DC010D900020E9F7119701900D92AF
S1130FF00020E1F708954532510518F4423008F015
S113100004C0FB011082CB010895BB274A3031F4A0
S1131010992322F4BDE2909581959F4F01C0BB278F
S1131020FB015527AA27880F991FAA1FA41710F0A0
S1131030A41B83955051B9F7A05DAA3308F0A95DAC
S1131040A193009779F7B111B1931192CB0100C02C
S1131050DC01FC01672F71917723E1F7329704C01B
S11310607C916D9370836291AE17BF07C8F30895A6
S1131070DC01862FE82FE199FECF1FBA05C0EEBB35
S1131080E09AE3950DB20D924150C8F70895F89493
S1051090FFCF8C
S10910920141434B000084
S9030000FC
