S01B0000576972656C65737354656D702053656E736F722E737265638B
S11300000C948F000C94AC000C94AC000C94AC00D9
S11300100C94AC000C94AC000C94AE000C94AC00AA
S11300200C94AC000C94AC000C94AC000C94BD008B
S11300300C94AC000C94AC000C94AC000C94AC008C
S11300400C94AC000C94AC000C94AC000C94AC007C
S11300500C94AC000C94AC000C94AC000C94AC006C
S11300600C94AC000C94AC00D07970793079D078D1
S113007070781078A0774077E07670760076807597
S1130080107590741074907310737072F0715071D5
S1130090D0703070906F006F506EB06D106D606CEA
S11300A0C06B106B606AA069006940688067C066B5
S11300B020666065A064E06320636062A061E06024
S11300C02060605FA05EE05D205D605CB05BF05A24
S11300D0405A8059D05820586057B0561056505541
S11300E0B05400546053B05210527051D05030503C
S11300F0904F004F704EE04D404DC04C204CA04BF3
S1130100204BA04A204AA0492049B0483048C04763
S11301105047E04680461046A0454045E04411243F
S11301201FBECFEFD8E0DEBFCDBF11E0A0E0B1E04D
S1130130E8E9FDE002C005900D92A632B107D9F7B7
S113014021E0A6E2B1E001C01D92A932B207E1F7B5
S11301500E946E010C94CA060C9400001F920F9228
S11301600FB60F9211248F9381E0809310018F9129
S11301700F900FBE0F901F9018951F920F920FB6FD
S11301800F9211248F93809127018F5F8093270111
S11301908F910F900FBE0F901F90189583B7817F9A
S11301A0846083BFE4E6F0E080818160808383B76C
S11301B0816083BF85B7806685BF85B78F7D85BF26
S11301C0889583B78E7F83BF8081807180830895F3
S11301D00F931F93CF93DF93EEE1F1E0E491F0E00E
S11301E0E817F90738F08E179F0708F46BC08EEFF5
S11301F091E06FC0E8E6F0E0E491F0E08E179F072D
S113020008F05DC03BE520E0032F10E0422F50E0F2
S1130210B801641B750B6230710594F0400F511FD7
S113022055954795FA01EE0FFF1FE859FF4FE491EA
S1130230F0E0E817F90710F4342FE6CF242FE4CFC9
S1130240FA01EE0FFF1FE859FF4FE491AE2FB0E023
S11302508A179B0748F02AE0249FC001259F900D30
S113026011248059914035C0F801EE0FFF1FE85961
S1130270FF4F649170E0FD01E61BF70B2AE0209F1D
S1130280E001219FD00D1124C059D1403097E9F0ED
S11302909C01261B370BAAE0B0E00E943E069F019A
S11302A036952795620F731F811D911D9F0140E0B4
S11302B050E00E941F06CE01821B930B0AC0E81770
S11302C0F90728F080E79EEF04C0CE0102C084EF56
S11302D091E0DF91CF911F910F910895CF93DF9318
S11302E0CDB7DEB7C757D1090FB6F894DEBF0FBE3E
S11302F0CDBFF89484B7877F84BF80916000886104
S11303008093600081E2809360008091600080644B
S113031080936000109280001092810088E09DE339
S113032090938900809388008091810088608093F5
S1130330810080918100816080938100809181009F
S113034084608093810080916F00826080936F004D
S1130350789445E050E060E070E0CE0185599F4F0D
S11303600E94BA0645E050E065E070E0CE01805995
S11303709F4F0E94BA069E0125593F4FAE01405936
S11303805F4F60E282E00E94C8030E94B70380E4EA
S113039080937C0087E880937A00259A992493942B
S11303A08CE1882E7E0185E0E80EF11C6E0192E45A
S11303B0C90ED11C5E01E5E2AE0EB11C8E010F5FC9
S11303C01F4F80911001882309F4B5C010921001C9
S11303D080912601109226018F3F09F4ACC0E69665
S11303E09FAEE697E7969FAEE797E8969FAEE897AD
S11303F019821A821B821C82F701882D11928A9518
S1130400E9F722961CAE1DAE1EAE1FAE229789E1FF
S1130410F601982F11929A95E9F719A21AA21BA234
S11304201CA2F50111928A95E9F780E1E1E1F1E07E
S1130430DE01A55ABF4F01900D928A95E1F780E243
S113044085B920E030E090917C00987F9160909392
S11304507C0090917A00906490937A0090917A0055
S113046096FDFCCF4091780050917900240F351F00
S1130470815049F715B8C9010E94E8004AE050E0EC
S1130480BE01625C7F4F0E947A0660E071E0CE019B
S1130490CE960E946F06AE01455A5F4FBE01625C64
S11304A07F4FCE0181960E947E04BE016B587F4F20
S11304B0C8010E946F06BE016F5D7F4FC8010E9494
S11304C06F06C8010E943A040E94B70310922701E4
S11304D00E94A103811104C0809127018230C0F3DE
S11304E00E94A103882329F1C8010E949403AE014C
S11304F0455A5F4FB801C8010E94500580E1F801D8
S1130500A0E0B1E001900D928A95E1F780E2F80154
S113051011928A95E9F7BE016B587F4FC8010E947A
S11305206F0661E271E0C8010E946F06C8010E9473
S11305303A040E9456040E94CE0043CFEF92FF92E9
S11305400F931F93CF93E82E80E00E946F0407E07F
S113055010E0C0E0F12CC701002E02C095958795EC
S11305600A94E2F780FF02C081E001C080E00E94AB
S1130570750481E00E946F04CC0F0E947B048111FA
S1130580C16080E00E946F040150110920F78C2F94
S1130590CF911F910F91FF90EF9008951F93CF93E8
S11305A0DF931F92CDB7DEB7182F80E069830E94D6
S11305B06904812F8F7180620E949E026981862F57
S11305C00E949E0281E00F90DF91CF911F910C94C5
S11305D06904AF92BF92DF92EF92FF920F931F9341
S11305E0CF93DF9300D000D0CDB7DEB7F82EE22E44
S11305F080E04B835C8369839A830E9469046981E8
S1130600862F0E949E02DF2C4B81042F5C81152FC4
S1130610AF2C9A81B92E8A2D8D198E1548F4F501C7
S113062081915F010E949E02F80181938F01F3CFB3
S113063081E00F900F900F900F90DF91CF911F9159
S11306400F91FF90EF90DF90BF90AF900C946904EE
S1130650CF93C82F80E00E9469048C2F0E949E02D1
S1130660C82F81E00E9469048C2FCF9108950F93C5
S11306701F93CF93DF938C01EB0180E00E94690408
S1130680F80180810E949E02888381E0DF91CF91EE
S11306901F910F910C946904EF92FF920F931F9393
S11306A0CF93DF9300D0CDB7DEB7182F80E06983F6
S11306B07A830E946904812F8F7180620E949E0256
S11306C06981E62E7A81F72E87010B5F1F4FF701B0
S11306D081917F010E949E02E016F106C1F781E03C
S11306E00F900F90DF91CF911F910F91FF90EF909A
S11306F00C946904CF93DF931F92CDB7DEB780E0EB
S11307000E94690487E10E949E02BE016F5F7F4FD1
S1130710CB010E94370381E00E94690489818170C2
S11307200F90DF91CF91089520912801AC0161E6EB
S11307300E94E90260E487E00C94CE028FEF0C94EF
S113074028030E949E0386FD07C00E947A0391E05D
S1130750882319F090E001C091E0892F08950E9448
S11307609E03982F907381E009F080E0089582EE53
S11307700E94280360E787E00E94CE0280E00E9486
S113078063046FE080E00E94CE0281E00C94630475
S1130790CF92DF92FF920F931F93CF93DF931F9219
S11307A0CDB7DEB7F82E8A01690169830E945D0422
S11307B080E00E94630481E00E946904698160937F
S11307C028016F2D85E00E94CE0260E081E10E9445
S11307D0CE026091280182E10E94CE0260E083E1B2
S11307E00E94CE0260E084E10E94CE0260E085E1D6
S11307F00E94CE0260E086E10E94CE0266E086E0BE
S11308000E94CE026CE080E00E94CE0263E081E0B0
S11308100E94CE0263E082E00E94CE026FEF84E089
S11308200E94CE0260E08CE10E94CE02B6018AE012
S11308300E944C03B60180E10E944C0380E00E94B8
S11308406304B8018BE00E944C0381E00E946304BE
S11308500F90DF91CF911F910F91FF90DF90CF9078
S11308600C94B70360E787E00E94CE026EE080E05C
S11308700C94CE02CF93DF93EC0180E00E946304DA
S11308800E94320481EE0E94280320912801AE01C7
S113089060EACE010E94E90281E00E9463040E94A2
S11308A0AF038111FCCFDF91CF91089580E00E94C6
S11308B063046CE080E00C94CE02539A219A549A1B
S11308C0569A55980895882311F05B9A08955B9879
S11308D00895882311F0299A089529980895882362
S11308E011F05C9A08955C980895882311F05E9A3B
S11308F008955E98089589B1807208952F923F9269
S11309004F925F926F927F928F929F92AF92BF921B
S1130910CF92DF92EF92FF920F931F93CF93DF93C7
S113092000D000D000D0CDB7DEB71C015E834D836C
S1130930FB0180809180A280B380C480D580E68052
S1130940F78080E090E0DC01FC01E370FF27EE0F0C
S1130950FF1FEE0FFF1F0D811E81E00FF11F40806E
S1130960518062807380480E591E6A1E7B1EA70147
S1130970960165E056954795379527956A95D1F781
S113098029833A834B835C839701860174E0000FCB
S1130990111F221F331F7A95D1F749815A816B8128
S11309A07C8104271527262737270C0D1D1D2E1D96
S11309B03F1D4026512662267326840C951CA61CD6
S11309C0B71C87549648A84CB14624013501E5E08C
S11309D07694679457944794EA95D1F795018401E6
S11309E0F4E0000F111F221F331FFA95D1F70425DD
S11309F015252625372528013901480C591C6A1C60
S1130A007B1C8C019D014BE0369527951795079526
S1130A104A95D1F7F801E370FF27EE0FFF1FEE0FA1
S1130A20FF1F6D817E81E60FF71F008111812281F6
S1130A303381080F191F2A1F3B1F0425152526255E
S1130A403725C00ED11EE21EF31E803277E39707CE
S1130A507FEEA70776ECB70709F076CFF101808225
S1130A609182A282B382C482D582E682F7822696DC
S1130A700FB6F894DEBF0FBECDBFDF91CF911F91AB
S1130A800F91FF90EF90DF90CF90BF90AF909F9029
S1130A908F907F906F905F904F903F902F9008952C
S1130AA02F923F924F925F926F927F928F929F927A
S1130AB0AF92BF92CF92DF92EF92FF920F931F9368
S1130AC0CF93DF9300D000D000D0CDB7DEB71C01A8
S1130AD05E834D83FB0180809180A280B380C480BB
S1130AE0D580E680F78080E297E3AFEEB6EC8C0128
S1130AF09D014BE036952795179507954A95D1F7B3
S1130B00F801E370FF27EE0FFF1FEE0FFF1F0D81AB
S1130B101E81E00FF11F4080518062807380480E77
S1130B20591E6A1E7B1EA501940165E056954795E2
S1130B30379527956A95D1F729833A834B835C834C
S1130B409501840174E0000F111F221F331F7A9551
S1130B50D1F749815A816B817C8104271527262787
S1130B603727080D191D2A1D3B1D402651266226D4
S1130B707326C418D508E608F708895B9947A74384
S1130B80BE4926013701E5E076946794579447946B
S1130B90EA95D1F797018601F4E0000F111F221F97
S1130BA0331FFA95D1F70425152526253725280165
S1130BB039014C0C5D1C6E1C7F1CFC01E370FF278B
S1130BC0EE0FFF1FEE0FFF1F6D817E81E60FF71FF3
S1130BD00081118122813381080F191F2A1F3B1FB5
S1130BE00425152526253725801A910AA20AB30A59
S1130BF00097A105B10509F07ACFF10180829182B5
S1130C00A282B382C482D582E682F78226960FB688
S1130C10F894DEBF0FBECDBFDF91CF911F910F912E
S1130C20FF90EF90DF90CF90BF90AF909F908F9008
S1130C307F906F905F904F903F902F900895052E76
S1130C4097FB1EF400940E94360657FD07D00E94BD
S1130C504D0607FC03D04EF40C943606509540958F
S1130C60309521953F4F4F4F5F4F08959095809554
S1130C70709561957F4F8F4F9F4F0895A29FB0014C
S1130C80B39FC001A39F700D811D1124911DB29FBC
S1130C90700D811D1124911D0895A1E21A2EAA1B25
S1130CA0BB1BFD010DC0AA1FBB1FEE1FFF1FA21718
S1130CB0B307E407F50720F0A21BB30BE40BF50B15
S1130CC0661F771F881F991F1A9469F7609570959E
S1130CD0809590959B01AC01BD01CF010895FB0166
S1130CE0DC010D900020E9F7119701900D9200208E
S1130CF0E1F708954532510520F4423010F00C9488
S1130D008506FB011082CB010895BB274A3031F4DC
S1130D10992322F4BDE2909581959F4F0C949106FE
S1130D20BB27FB015527AA27880F991FAA1FA417C1
S1130D3010F0A41B83955051B9F7A05DAA3308F0B5
S1130D40A95DA193009779F7B111B1931192CB01E9
S1130D500C94AA06DC01FC01672F71917723E1F75B
S1130D60329704C07C916D9370836291AE17BF0774
S1130D70C8F30895DC01CB01FC01F999FECF06C04C
S1130D80F2BDE1BDF89A319600B40D924150504045
S10B0D90B8F70895F894FFCFB1
S1130D98000102030405060708090A0B0C0D0E0FCF
S1130DA801000102030405060708090A0B0C0D0ECD
S1090DB80F41434B000053
S9030000FC
